{
  "contractName": "Vote",
  "abi": [
    {
      "inputs": [
        {
          "internalType": "string[]",
          "name": "nameList",
          "type": "string[]"
        }
      ],
      "stateMutability": "nonpayable",
      "type": "constructor"
    },
    {
      "anonymous": false,
      "inputs": [
        {
          "indexed": false,
          "internalType": "string",
          "name": "",
          "type": "string"
        }
      ],
      "name": "VoteSuccess",
      "type": "event"
    },
    {
      "inputs": [
        {
          "internalType": "uint256",
          "name": "",
          "type": "uint256"
        }
      ],
      "name": "board",
      "outputs": [
        {
          "internalType": "string",
          "name": "name",
          "type": "string"
        },
        {
          "internalType": "uint256",
          "name": "totalAmount",
          "type": "uint256"
        }
      ],
      "stateMutability": "view",
      "type": "function",
      "constant": true
    },
    {
      "inputs": [],
      "name": "host",
      "outputs": [
        {
          "internalType": "address",
          "name": "",
          "type": "address"
        }
      ],
      "stateMutability": "view",
      "type": "function",
      "constant": true
    },
    {
      "inputs": [
        {
          "internalType": "address",
          "name": "",
          "type": "address"
        }
      ],
      "name": "voters",
      "outputs": [
        {
          "internalType": "uint16",
          "name": "amount",
          "type": "uint16"
        },
        {
          "internalType": "bool",
          "name": "isVoted",
          "type": "bool"
        },
        {
          "internalType": "address",
          "name": "delegator",
          "type": "address"
        },
        {
          "internalType": "uint256",
          "name": "targetId",
          "type": "uint256"
        }
      ],
      "stateMutability": "view",
      "type": "function",
      "constant": true
    },
    {
      "inputs": [],
      "name": "getBoardInfo",
      "outputs": [
        {
          "components": [
            {
              "internalType": "string",
              "name": "name",
              "type": "string"
            },
            {
              "internalType": "uint256",
              "name": "totalAmount",
              "type": "uint256"
            }
          ],
          "internalType": "struct Vote.Board[]",
          "name": "",
          "type": "tuple[]"
        }
      ],
      "stateMutability": "view",
      "type": "function",
      "constant": true
    },
    {
      "inputs": [
        {
          "internalType": "address[]",
          "name": "addressList",
          "type": "address[]"
        }
      ],
      "name": "mandate",
      "outputs": [],
      "stateMutability": "nonpayable",
      "type": "function"
    },
    {
      "inputs": [
        {
          "internalType": "address",
          "name": "to",
          "type": "address"
        }
      ],
      "name": "delegate",
      "outputs": [],
      "stateMutability": "nonpayable",
      "type": "function"
    },
    {
      "inputs": [
        {
          "internalType": "uint8",
          "name": "targetId",
          "type": "uint8"
        }
      ],
      "name": "vote",
      "outputs": [],
      "stateMutability": "nonpayable",
      "type": "function"
    }
  ],
  "bytecode": "0x60806040523480156200001157600080fd5b5060405162001ddb38038062001ddb83398181016040528101906200003791906200043d565b336000806101000a81548173ffffffffffffffffffffffffffffffffffffffff021916908373ffffffffffffffffffffffffffffffffffffffff16021790555060018060008060009054906101000a900473ffffffffffffffffffffffffffffffffffffffff1673ffffffffffffffffffffffffffffffffffffffff1673ffffffffffffffffffffffffffffffffffffffff16815260200190815260200160002060000160006101000a81548161ffff021916908361ffff16021790555060005b8151811015620001a65760008282815181106200011a57620001196200048e565b5b602002602001015190506000604051806040016040528083815260200160008152509050600281908060018154018082558091505060019003906000526020600020906002020160009091909190915060008201518160000190816200018191906200070e565b50602082015181600101555050505080806200019d9062000824565b915050620000f8565b505062000871565b6000604051905090565b600080fd5b600080fd5b600080fd5b6000601f19601f8301169050919050565b7f4e487b7100000000000000000000000000000000000000000000000000000000600052604160045260246000fd5b6200021282620001c7565b810181811067ffffffffffffffff82111715620002345762000233620001d8565b5b80604052505050565b600062000249620001ae565b905062000257828262000207565b919050565b600067ffffffffffffffff8211156200027a5762000279620001d8565b5b602082029050602081019050919050565b600080fd5b600080fd5b600067ffffffffffffffff821115620002b357620002b2620001d8565b5b620002be82620001c7565b9050602081019050919050565b60005b83811015620002eb578082015181840152602081019050620002ce565b60008484015250505050565b60006200030e620003088462000295565b6200023d565b9050828152602081018484840111156200032d576200032c62000290565b5b6200033a848285620002cb565b509392505050565b600082601f8301126200035a5762000359620001c2565b5b81516200036c848260208601620002f7565b91505092915050565b60006200038c62000386846200025c565b6200023d565b90508083825260208201905060208402830185811115620003b257620003b16200028b565b5b835b818110156200040057805167ffffffffffffffff811115620003db57620003da620001c2565b5b808601620003ea898262000342565b85526020850194505050602081019050620003b4565b5050509392505050565b600082601f830112620004225762000421620001c2565b5b81516200043484826020860162000375565b91505092915050565b600060208284031215620004565762000455620001b8565b5b600082015167ffffffffffffffff811115620004775762000476620001bd565b5b62000485848285016200040a565b91505092915050565b7f4e487b7100000000000000000000000000000000000000000000000000000000600052603260045260246000fd5b600081519050919050565b7f4e487b7100000000000000000000000000000000000000000000000000000000600052602260045260246000fd5b600060028204905060018216806200051057607f821691505b602082108103620005265762000525620004c8565b5b50919050565b60008190508160005260206000209050919050565b60006020601f8301049050919050565b60008160020a8302905092915050565b600060088302620005937fffffffffffffffffffffffffffffffffffffffffffffffffffffffffffffffff8262000551565b6200059f868362000551565b95508019841693508086168417925050509392505050565b6000819050919050565b6000819050919050565b6000620005ec620005e6620005e084620005b7565b620005c1565b620005b7565b9050919050565b6000819050919050565b6200060883620005cb565b620006206200061782620005f3565b84845462000561565b825550505050565b600090565b6200063762000628565b62000644818484620005fd565b505050565b5b818110156200066c57620006606000826200062d565b6001810190506200064a565b5050565b601f821115620006bb5762000685816200052c565b620006908462000541565b81016020851015620006a0578190505b620006b8620006af8562000541565b83018262000649565b50505b505050565b60008160020a8304905092915050565b6000620006e360001984600802620006c0565b1980831691505092915050565b6000620006fe8383620006d0565b9150826002028217905092915050565b6200071982620004bd565b67ffffffffffffffff811115620007355762000734620001d8565b5b620007418254620004f7565b6200074e82828562000670565b600060209050601f83116001811462000786576000841562000771578287015190505b6200077d8582620006f0565b865550620007ed565b601f19841662000796866200052c565b60005b82811015620007c05784890151825560018201915060208501945060208101905062000799565b86831015620007e05784890151620007dc601f891682620006d0565b8355505b6001600288020188555050505b505050505050565b7f4e487b7100000000000000000000000000000000000000000000000000000000600052601160045260246000fd5b60006200083182620005b7565b91507fffffffffffffffffffffffffffffffffffffffffffffffffffffffffffffffff8203620008665762000865620007f5565b5b600182019050919050565b61155a80620008816000396000f3fe608060405234801561001057600080fd5b506004361061009a576000357c010000000000000000000000000000000000000000000000000000000090048063a3ec138d11610078578063a3ec138d14610108578063b3f98adc1461013b578063ed34c6ee14610157578063f437bc59146101755761009a565b806328ed6e3f1461009f5780635c19a95c146100d05780638760c761146100ec575b600080fd5b6100b960048036038101906100b49190610c65565b610193565b6040516100c7929190610d31565b60405180910390f35b6100ea60048036038101906100e59190610dbf565b61024f565b005b61010660048036038101906101019190610e51565b6106a6565b005b610122600480360381019061011d9190610dbf565b61083f565b6040516101329493929190610ee5565b60405180910390f35b61015560048036038101906101509190610f63565b6108aa565b005b61015f610a73565b60405161016c91906110e8565b60405180910390f35b61017d610b6e565b60405161018a919061110a565b60405180910390f35b600281815481106101a357600080fd5b90600052602060002090600202016000915090508060000180546101c690611154565b80601f01602080910402602001604051908101604052809291908181526020018280546101f290611154565b801561023f5780601f106102145761010080835404028352916020019161023f565b820191906000526020600020905b81548152906001019060200180831161022257829003601f168201915b5050505050908060010154905082565b6000600160003373ffffffffffffffffffffffffffffffffffffffff1673ffffffffffffffffffffffffffffffffffffffff1681526020019081526020016000209050610341816040518060800160405290816000820160009054906101000a900461ffff1661ffff1661ffff1681526020016000820160029054906101000a900460ff161515151581526020016000820160039054906101000a900473ffffffffffffffffffffffffffffffffffffffff1673ffffffffffffffffffffffffffffffffffffffff1673ffffffffffffffffffffffffffffffffffffffff168152602001600182015481525050610b92565b8173ffffffffffffffffffffffffffffffffffffffff163373ffffffffffffffffffffffffffffffffffffffff16036103af576040517f08c379a00000000000000000000000000000000000000000000000000000000081526004016103a6906111d1565b60405180910390fd5b5b600073ffffffffffffffffffffffffffffffffffffffff16600160008473ffffffffffffffffffffffffffffffffffffffff1673ffffffffffffffffffffffffffffffffffffffff16815260200190815260200160002060000160039054906101000a900473ffffffffffffffffffffffffffffffffffffffff1673ffffffffffffffffffffffffffffffffffffffff161461051e57600160008373ffffffffffffffffffffffffffffffffffffffff1673ffffffffffffffffffffffffffffffffffffffff16815260200190815260200160002060000160039054906101000a900473ffffffffffffffffffffffffffffffffffffffff1691503373ffffffffffffffffffffffffffffffffffffffff168273ffffffffffffffffffffffffffffffffffffffff1614610519576040517f08c379a00000000000000000000000000000000000000000000000000000000081526004016105109061123d565b60405180910390fd5b6103b0565b60018160000160026101000a81548160ff021916908315150217905550818160000160036101000a81548173ffffffffffffffffffffffffffffffffffffffff021916908373ffffffffffffffffffffffffffffffffffffffff1602179055506000600160008473ffffffffffffffffffffffffffffffffffffffff1673ffffffffffffffffffffffffffffffffffffffff16815260200190815260200160002090508060000160029054906101000a900460ff1615610633578160000160009054906101000a900461ffff1661ffff1660028260010154815481106106075761060661125d565b5b9060005260206000209060020201600101600082825461062791906112bb565b92505081905550610681565b8160000160009054906101000a900461ffff168160000160008282829054906101000a900461ffff1661066691906112ef565b92506101000a81548161ffff021916908361ffff1602179055505b60008260000160006101000a81548161ffff021916908361ffff160217905550505050565b60008054906101000a900473ffffffffffffffffffffffffffffffffffffffff1673ffffffffffffffffffffffffffffffffffffffff163373ffffffffffffffffffffffffffffffffffffffff1614610734576040517f08c379a000000000000000000000000000000000000000000000000000000000815260040161072b90611397565b60405180910390fd5b60005b828290508160ff16101561083a57600083838360ff1681811061075d5761075c61125d565b5b90506020020160208101906107729190610dbf565b9050600160008273ffffffffffffffffffffffffffffffffffffffff1673ffffffffffffffffffffffffffffffffffffffff16815260200190815260200160002060000160029054906101000a900460ff166108265760018060008373ffffffffffffffffffffffffffffffffffffffff1673ffffffffffffffffffffffffffffffffffffffff16815260200190815260200160002060000160006101000a81548161ffff021916908361ffff1602179055505b508080610832906113b7565b915050610737565b505050565b60016020528060005260406000206000915090508060000160009054906101000a900461ffff16908060000160029054906101000a900460ff16908060000160039054906101000a900473ffffffffffffffffffffffffffffffffffffffff16908060010154905084565b6000600160003373ffffffffffffffffffffffffffffffffffffffff1673ffffffffffffffffffffffffffffffffffffffff168152602001908152602001600020905061099c816040518060800160405290816000820160009054906101000a900461ffff1661ffff1661ffff1681526020016000820160029054906101000a900460ff161515151581526020016000820160039054906101000a900473ffffffffffffffffffffffffffffffffffffffff1673ffffffffffffffffffffffffffffffffffffffff1673ffffffffffffffffffffffffffffffffffffffff168152602001600182015481525050610b92565b8160ff1681600101819055508060000160009054906101000a900461ffff1661ffff1660028360ff16815481106109d6576109d561125d565b5b906000526020600020906002020160010160008282546109f691906112bb565b9250508190555060008160000160006101000a81548161ffff021916908361ffff16021790555060018160000160026101000a81548160ff0219169083151502179055507fb3188d6329f6f95971ce8954af179d3fae1e725d351be6fc9636a8fcdb3f0787604051610a679061142c565b60405180910390a15050565b60606002805480602002602001604051908101604052809291908181526020016000905b82821015610b655783829060005260206000209060020201604051806040016040529081600082018054610aca90611154565b80601f0160208091040260200160405190810160405280929190818152602001828054610af690611154565b8015610b435780601f10610b1857610100808354040283529160200191610b43565b820191906000526020600020905b815481529060010190602001808311610b2657829003601f168201915b5050505050815260200160018201548152505081526020019060010190610a97565b50505050905090565b60008054906101000a900473ffffffffffffffffffffffffffffffffffffffff1681565b6000816000015161ffff1611610bdd576040517f08c379a0000000000000000000000000000000000000000000000000000000008152600401610bd490611498565b60405180910390fd5b806020015115610c22576040517f08c379a0000000000000000000000000000000000000000000000000000000008152600401610c1990611504565b60405180910390fd5b50565b600080fd5b600080fd5b6000819050919050565b610c4281610c2f565b8114610c4d57600080fd5b50565b600081359050610c5f81610c39565b92915050565b600060208284031215610c7b57610c7a610c25565b5b6000610c8984828501610c50565b91505092915050565b600081519050919050565b600082825260208201905092915050565b60005b83811015610ccc578082015181840152602081019050610cb1565b60008484015250505050565b6000601f19601f8301169050919050565b6000610cf482610c92565b610cfe8185610c9d565b9350610d0e818560208601610cae565b610d1781610cd8565b840191505092915050565b610d2b81610c2f565b82525050565b60006040820190508181036000830152610d4b8185610ce9565b9050610d5a6020830184610d22565b9392505050565b600073ffffffffffffffffffffffffffffffffffffffff82169050919050565b6000610d8c82610d61565b9050919050565b610d9c81610d81565b8114610da757600080fd5b50565b600081359050610db981610d93565b92915050565b600060208284031215610dd557610dd4610c25565b5b6000610de384828501610daa565b91505092915050565b600080fd5b600080fd5b600080fd5b60008083601f840112610e1157610e10610dec565b5b8235905067ffffffffffffffff811115610e2e57610e2d610df1565b5b602083019150836020820283011115610e4a57610e49610df6565b5b9250929050565b60008060208385031215610e6857610e67610c25565b5b600083013567ffffffffffffffff811115610e8657610e85610c2a565b5b610e9285828601610dfb565b92509250509250929050565b600061ffff82169050919050565b610eb581610e9e565b82525050565b60008115159050919050565b610ed081610ebb565b82525050565b610edf81610d81565b82525050565b6000608082019050610efa6000830187610eac565b610f076020830186610ec7565b610f146040830185610ed6565b610f216060830184610d22565b95945050505050565b600060ff82169050919050565b610f4081610f2a565b8114610f4b57600080fd5b50565b600081359050610f5d81610f37565b92915050565b600060208284031215610f7957610f78610c25565b5b6000610f8784828501610f4e565b91505092915050565b600081519050919050565b600082825260208201905092915050565b6000819050602082019050919050565b600082825260208201905092915050565b6000610fd882610c92565b610fe28185610fbc565b9350610ff2818560208601610cae565b610ffb81610cd8565b840191505092915050565b61100f81610c2f565b82525050565b600060408301600083015184820360008601526110328282610fcd565b91505060208301516110476020860182611006565b508091505092915050565b600061105e8383611015565b905092915050565b6000602082019050919050565b600061107e82610f90565b6110888185610f9b565b93508360208202850161109a85610fac565b8060005b858110156110d657848403895281516110b78582611052565b94506110c283611066565b925060208a0199505060018101905061109e565b50829750879550505050505092915050565b600060208201905081810360008301526111028184611073565b905092915050565b600060208201905061111f6000830184610ed6565b92915050565b7f4e487b7100000000000000000000000000000000000000000000000000000000600052602260045260246000fd5b6000600282049050600182168061116c57607f821691505b60208210810361117f5761117e611125565b5b50919050565b7fe4b88de883bde5a794e68998e7bb99e887aae5b7b1efbc810000000000000000600082015250565b60006111bb601883610c9d565b91506111c682611185565b602082019050919050565b600060208201905081810360008301526111ea816111ae565b9050919050565b7fe4b88de883bde5beaae78eafe5a794e68998efbc810000000000000000000000600082015250565b6000611227601583610c9d565b9150611232826111f1565b602082019050919050565b600060208201905081810360008301526112568161121a565b9050919050565b7f4e487b7100000000000000000000000000000000000000000000000000000000600052603260045260246000fd5b7f4e487b7100000000000000000000000000000000000000000000000000000000600052601160045260246000fd5b60006112c682610c2f565b91506112d183610c2f565b92508282019050808211156112e9576112e861128c565b5b92915050565b60006112fa82610e9e565b915061130583610e9e565b9250828201905061ffff81111561131f5761131e61128c565b5b92915050565b7fe58faae69c89e4b8bbe68c81e4babae6898de883bde8b58be4ba88e98089e7a560008201527fa800000000000000000000000000000000000000000000000000000000000000602082015250565b6000611381602183610c9d565b915061138c82611325565b604082019050919050565b600060208201905081810360008301526113b081611374565b9050919050565b60006113c282610f2a565b915060ff82036113d5576113d461128c565b5b600182019050919050565b7fe68a95e7a5a8e68890e58a9fefbc810000000000000000000000000000000000600082015250565b6000611416600f83610c9d565b9150611421826113e0565b602082019050919050565b6000602082019050818103600083015261144581611409565b9050919050565b7fe6b2a1e69c89e98089e7a5a8e4ba86efbc810000000000000000000000000000600082015250565b6000611482601283610c9d565b915061148d8261144c565b602082019050919050565b600060208201905081810360008301526114b181611475565b9050919050565b7fe5b7b2e7bb8fe68a95e8bf87e7a5a8e595a6efbc810000000000000000000000600082015250565b60006114ee601583610c9d565b91506114f9826114b8565b602082019050919050565b6000602082019050818103600083015261151d816114e1565b905091905056fea264697066735822122028532e5aca65822a3db69afd3aaf535ba9b714548146781270c0acf5c9417d9a64736f6c63430008140033",
  "immutableReferences": {},
  "source": "// SPDX-License-Identifier: MIT\npragma solidity ^0.8.7;\n\n// \ncontract Vote {\n    // \n    struct Voter {\n        // \n        uint16 amount;\n        // \n        bool isVoted;\n        // \n        address delegator;\n        // id\n        uint256 targetId;\n    }\n    // \n    struct Board {\n        // \n        string name;\n        // \n        uint256 totalAmount;\n    }\n\n    // \n    address public host;\n\n    // \n    mapping(address => Voter) public voters;\n\n    // \n    Board[] public board;\n\n    //  [\"\",\"\",\"\"]\n    constructor(string[] memory nameList) {\n        host = msg.sender;\n        // 1\n        voters[host].amount = 1;\n        for(uint256 i = 0; i < nameList.length; i++) {\n            string memory cur = nameList[i];\n            Board memory b = Board(cur, 0);\n            board.push(b);\n        }\n    }\n\n    // \n    function getBoardInfo() public view returns (Board[] memory) {\n        return  board;\n    }\n\n    // \n    // [\"0xbC1b6866204241EcDbc94071717a8043082Bfc2E\", \"0x59e19bfae42C786c5eC4EF0abe68f64707D02C6f\",\"0xBb9429df9151ba6c88dC3e163403aC7Ed33354E3\"]\n    // [\"0xAb8483F64d9C6d1EcF9b849Ae677dD3315835cb2\", \"0x4B20993Bc481177ec7E8f571ceCaE8A9e22C02db\", \"0x78731D3Ca6b7E34aC0F824c42a7cC18A495cabaB\"]\n    function mandate(address[] calldata addressList) public {\n        // \n        require(msg.sender == host, unicode\"\");\n        for (uint8 i = 0; i<addressList.length; i++) {\n            // \n            address cur = addressList[i];\n            if (!voters[cur].isVoted) {\n                voters[cur].amount = 1;\n            }\n        }\n    }\n\n    event VoteSuccess(string);\n\n    function checkVoter(Voter memory voter) internal pure {\n        require(voter.amount > 0, unicode\"\");\n        require(!voter.isVoted, unicode\"\");\n    }\n\n    // \n    function delegate(address to)    public {\n        // \n        Voter storage sender = voters[msg.sender];\n        checkVoter(sender);\n        require(msg.sender != to, unicode\"\");\n        // \n        while(voters[to].delegator != address(0)) {\n            to = voters[to].delegator;\n            require(to == msg.sender, unicode\"\");\n        }\n        // \n        sender.isVoted = true;\n        sender.delegator = to;\n\n        // \n        Voter storage delegator = voters[to];\n        if (delegator.isVoted) {\n            // \n            board[delegator.targetId].totalAmount += sender.amount;\n        } else {\n            // ,\n            delegator.amount += sender.amount;\n        }\n        sender.amount = 0;\n    }\n\n    // \n    function vote(uint8 targetId) public {\n        Voter storage sender = voters[msg.sender];\n        checkVoter(sender);\n        sender.targetId = targetId;\n        board[targetId].totalAmount += sender.amount;\n        sender.amount = 0;\n        sender.isVoted = true;\n        emit VoteSuccess(unicode\"\");\n    }\n}\n",
  "sourcePath": "/Users/xiaoran/sites/web/web3/web3-wallet/contracts/Vote.sol",
  "compiler": {
    "name": "solc",
    "version": "0.8.20+commit.a1b79de6.Emscripten.clang"
  },
  "schemaVersion": "3.4.14",
  "updatedAt": "2023-08-09T09:17:31.893Z",
  "networkType": "ethereum",
  "devdoc": {
    "kind": "dev",
    "methods": {},
    "version": 1
  },
  "userdoc": {
    "kind": "user",
    "methods": {},
    "version": 1
  }
}